{
  "_format": "hh-sol-artifact-1",
  "contractName": "CreditNFT",
  "sourceName": "contracts/CreditNFT.sol",
  "abi": [
    {
      "inputs": [
        {
          "internalType": "address",
          "name": "initialOwner",
          "type": "address"
        }
      ],
      "stateMutability": "nonpayable",
      "type": "constructor"
    },
    {
      "inputs": [
        {
          "internalType": "address",
          "name": "sender",
          "type": "address"
        },
        {
          "internalType": "uint256",
          "name": "tokenId",
          "type": "uint256"
        },
        {
          "internalType": "address",
          "name": "owner",
          "type": "address"
        }
      ],
      "name": "ERC721IncorrectOwner",
      "type": "error"
    },
    {
      "inputs": [
        {
          "internalType": "address",
          "name": "operator",
          "type": "address"
        },
        {
          "internalType": "uint256",
          "name": "tokenId",
          "type": "uint256"
        }
      ],
      "name": "ERC721InsufficientApproval",
      "type": "error"
    },
    {
      "inputs": [
        {
          "internalType": "address",
          "name": "approver",
          "type": "address"
        }
      ],
      "name": "ERC721InvalidApprover",
      "type": "error"
    },
    {
      "inputs": [
        {
          "internalType": "address",
          "name": "operator",
          "type": "address"
        }
      ],
      "name": "ERC721InvalidOperator",
      "type": "error"
    },
    {
      "inputs": [
        {
          "internalType": "address",
          "name": "owner",
          "type": "address"
        }
      ],
      "name": "ERC721InvalidOwner",
      "type": "error"
    },
    {
      "inputs": [
        {
          "internalType": "address",
          "name": "receiver",
          "type": "address"
        }
      ],
      "name": "ERC721InvalidReceiver",
      "type": "error"
    },
    {
      "inputs": [
        {
          "internalType": "address",
          "name": "sender",
          "type": "address"
        }
      ],
      "name": "ERC721InvalidSender",
      "type": "error"
    },
    {
      "inputs": [
        {
          "internalType": "uint256",
          "name": "tokenId",
          "type": "uint256"
        }
      ],
      "name": "ERC721NonexistentToken",
      "type": "error"
    },
    {
      "inputs": [
        {
          "internalType": "address",
          "name": "owner",
          "type": "address"
        }
      ],
      "name": "OwnableInvalidOwner",
      "type": "error"
    },
    {
      "inputs": [
        {
          "internalType": "address",
          "name": "account",
          "type": "address"
        }
      ],
      "name": "OwnableUnauthorizedAccount",
      "type": "error"
    },
    {
      "anonymous": false,
      "inputs": [
        {
          "indexed": true,
          "internalType": "address",
          "name": "owner",
          "type": "address"
        },
        {
          "indexed": true,
          "internalType": "address",
          "name": "approved",
          "type": "address"
        },
        {
          "indexed": true,
          "internalType": "uint256",
          "name": "tokenId",
          "type": "uint256"
        }
      ],
      "name": "Approval",
      "type": "event"
    },
    {
      "anonymous": false,
      "inputs": [
        {
          "indexed": true,
          "internalType": "address",
          "name": "owner",
          "type": "address"
        },
        {
          "indexed": true,
          "internalType": "address",
          "name": "operator",
          "type": "address"
        },
        {
          "indexed": false,
          "internalType": "bool",
          "name": "approved",
          "type": "bool"
        }
      ],
      "name": "ApprovalForAll",
      "type": "event"
    },
    {
      "anonymous": false,
      "inputs": [
        {
          "indexed": false,
          "internalType": "uint256",
          "name": "_fromTokenId",
          "type": "uint256"
        },
        {
          "indexed": false,
          "internalType": "uint256",
          "name": "_toTokenId",
          "type": "uint256"
        }
      ],
      "name": "BatchMetadataUpdate",
      "type": "event"
    },
    {
      "anonymous": false,
      "inputs": [
        {
          "indexed": true,
          "internalType": "uint256",
          "name": "tokenId",
          "type": "uint256"
        },
        {
          "indexed": true,
          "internalType": "address",
          "name": "owner",
          "type": "address"
        },
        {
          "indexed": false,
          "internalType": "uint256",
          "name": "paymentScore",
          "type": "uint256"
        },
        {
          "indexed": false,
          "internalType": "uint256",
          "name": "consecutivePayments",
          "type": "uint256"
        }
      ],
      "name": "CreditNFTMinted",
      "type": "event"
    },
    {
      "anonymous": false,
      "inputs": [
        {
          "indexed": false,
          "internalType": "uint256",
          "name": "_tokenId",
          "type": "uint256"
        }
      ],
      "name": "MetadataUpdate",
      "type": "event"
    },
    {
      "anonymous": false,
      "inputs": [
        {
          "indexed": true,
          "internalType": "address",
          "name": "previousOwner",
          "type": "address"
        },
        {
          "indexed": true,
          "internalType": "address",
          "name": "newOwner",
          "type": "address"
        }
      ],
      "name": "OwnershipTransferred",
      "type": "event"
    },
    {
      "anonymous": false,
      "inputs": [
        {
          "indexed": true,
          "internalType": "uint256",
          "name": "tokenId",
          "type": "uint256"
        },
        {
          "indexed": false,
          "internalType": "uint256",
          "name": "newScore",
          "type": "uint256"
        },
        {
          "indexed": false,
          "internalType": "uint256",
          "name": "consecutivePayments",
          "type": "uint256"
        }
      ],
      "name": "PaymentRecorded",
      "type": "event"
    },
    {
      "anonymous": false,
      "inputs": [
        {
          "indexed": true,
          "internalType": "address",
          "name": "from",
          "type": "address"
        },
        {
          "indexed": true,
          "internalType": "address",
          "name": "to",
          "type": "address"
        },
        {
          "indexed": true,
          "internalType": "uint256",
          "name": "tokenId",
          "type": "uint256"
        }
      ],
      "name": "Transfer",
      "type": "event"
    },
    {
      "anonymous": false,
      "inputs": [
        {
          "indexed": true,
          "internalType": "uint256",
          "name": "tokenId",
          "type": "uint256"
        },
        {
          "indexed": true,
          "internalType": "address",
          "name": "linkedWallet",
          "type": "address"
        }
      ],
      "name": "WalletLinked",
      "type": "event"
    },
    {
      "inputs": [],
      "name": "INITIAL_SELF_MINT_SCORE",
      "outputs": [
        {
          "internalType": "uint256",
          "name": "",
          "type": "uint256"
        }
      ],
      "stateMutability": "view",
      "type": "function"
    },
    {
      "inputs": [
        {
          "internalType": "address",
          "name": "",
          "type": "address"
        }
      ],
      "name": "activeToken",
      "outputs": [
        {
          "internalType": "uint256",
          "name": "",
          "type": "uint256"
        }
      ],
      "stateMutability": "view",
      "type": "function"
    },
    {
      "inputs": [
        {
          "internalType": "address",
          "name": "to",
          "type": "address"
        },
        {
          "internalType": "uint256",
          "name": "tokenId",
          "type": "uint256"
        }
      ],
      "name": "approve",
      "outputs": [],
      "stateMutability": "nonpayable",
      "type": "function"
    },
    {
      "inputs": [
        {
          "internalType": "address",
          "name": "minter",
          "type": "address"
        }
      ],
      "name": "authorizeMinter",
      "outputs": [],
      "stateMutability": "nonpayable",
      "type": "function"
    },
    {
      "inputs": [
        {
          "internalType": "address",
          "name": "",
          "type": "address"
        }
      ],
      "name": "authorizedMinters",
      "outputs": [
        {
          "internalType": "bool",
          "name": "",
          "type": "bool"
        }
      ],
      "stateMutability": "view",
      "type": "function"
    },
    {
      "inputs": [
        {
          "internalType": "address",
          "name": "owner",
          "type": "address"
        }
      ],
      "name": "balanceOf",
      "outputs": [
        {
          "internalType": "uint256",
          "name": "",
          "type": "uint256"
        }
      ],
      "stateMutability": "view",
      "type": "function"
    },
    {
      "inputs": [
        {
          "internalType": "uint256",
          "name": "",
          "type": "uint256"
        }
      ],
      "name": "creditData",
      "outputs": [
        {
          "internalType": "uint256",
          "name": "paymentScore",
          "type": "uint256"
        },
        {
          "internalType": "uint256",
          "name": "consecutivePayments",
          "type": "uint256"
        },
        {
          "internalType": "address",
          "name": "linkedWallet",
          "type": "address"
        },
        {
          "internalType": "uint256",
          "name": "governancePower",
          "type": "uint256"
        },
        {
          "internalType": "uint256",
          "name": "stakingAmount",
          "type": "uint256"
        },
        {
          "internalType": "uint256",
          "name": "createdAt",
          "type": "uint256"
        },
        {
          "internalType": "bool",
          "name": "isStaked",
          "type": "bool"
        }
      ],
      "stateMutability": "view",
      "type": "function"
    },
    {
      "inputs": [
        {
          "internalType": "address",
          "name": "user",
          "type": "address"
        }
      ],
      "name": "getActiveToken",
      "outputs": [
        {
          "internalType": "uint256",
          "name": "",
          "type": "uint256"
        }
      ],
      "stateMutability": "view",
      "type": "function"
    },
    {
      "inputs": [
        {
          "internalType": "uint256",
          "name": "tokenId",
          "type": "uint256"
        }
      ],
      "name": "getApproved",
      "outputs": [
        {
          "internalType": "address",
          "name": "",
          "type": "address"
        }
      ],
      "stateMutability": "view",
      "type": "function"
    },
    {
      "inputs": [
        {
          "internalType": "uint256",
          "name": "tokenId",
          "type": "uint256"
        }
      ],
      "name": "getCreditData",
      "outputs": [
        {
          "components": [
            {
              "internalType": "uint256",
              "name": "paymentScore",
              "type": "uint256"
            },
            {
              "internalType": "uint256",
              "name": "consecutivePayments",
              "type": "uint256"
            },
            {
              "internalType": "address",
              "name": "linkedWallet",
              "type": "address"
            },
            {
              "internalType": "uint256",
              "name": "governancePower",
              "type": "uint256"
            },
            {
              "internalType": "uint256",
              "name": "stakingAmount",
              "type": "uint256"
            },
            {
              "internalType": "uint256",
              "name": "createdAt",
              "type": "uint256"
            },
            {
              "internalType": "bool",
              "name": "isStaked",
              "type": "bool"
            }
          ],
          "internalType": "struct CreditNFT.CreditData",
          "name": "",
          "type": "tuple"
        }
      ],
      "stateMutability": "view",
      "type": "function"
    },
    {
      "inputs": [
        {
          "internalType": "uint256",
          "name": "tokenId",
          "type": "uint256"
        }
      ],
      "name": "getReputation",
      "outputs": [
        {
          "internalType": "uint256",
          "name": "",
          "type": "uint256"
        }
      ],
      "stateMutability": "view",
      "type": "function"
    },
    {
      "inputs": [
        {
          "internalType": "address",
          "name": "owner",
          "type": "address"
        },
        {
          "internalType": "address",
          "name": "operator",
          "type": "address"
        }
      ],
      "name": "isApprovedForAll",
      "outputs": [
        {
          "internalType": "bool",
          "name": "",
          "type": "bool"
        }
      ],
      "stateMutability": "view",
      "type": "function"
    },
    {
      "inputs": [
        {
          "internalType": "uint256",
          "name": "tokenId",
          "type": "uint256"
        },
        {
          "internalType": "address",
          "name": "linkedWallet",
          "type": "address"
        }
      ],
      "name": "linkWallet",
      "outputs": [],
      "stateMutability": "nonpayable",
      "type": "function"
    },
    {
      "inputs": [
        {
          "internalType": "address",
          "name": "to",
          "type": "address"
        },
        {
          "internalType": "uint256",
          "name": "paymentScore",
          "type": "uint256"
        },
        {
          "internalType": "uint256",
          "name": "consecutivePayments",
          "type": "uint256"
        },
        {
          "internalType": "string",
          "name": "tokenURI",
          "type": "string"
        }
      ],
      "name": "mintCreditNFT",
      "outputs": [
        {
          "internalType": "uint256",
          "name": "",
          "type": "uint256"
        }
      ],
      "stateMutability": "nonpayable",
      "type": "function"
    },
    {
      "inputs": [
        {
          "internalType": "string",
          "name": "tokenURI",
          "type": "string"
        }
      ],
      "name": "mintMyPassport",
      "outputs": [
        {
          "internalType": "uint256",
          "name": "",
          "type": "uint256"
        }
      ],
      "stateMutability": "nonpayable",
      "type": "function"
    },
    {
      "inputs": [],
      "name": "name",
      "outputs": [
        {
          "internalType": "string",
          "name": "",
          "type": "string"
        }
      ],
      "stateMutability": "view",
      "type": "function"
    },
    {
      "inputs": [],
      "name": "owner",
      "outputs": [
        {
          "internalType": "address",
          "name": "",
          "type": "address"
        }
      ],
      "stateMutability": "view",
      "type": "function"
    },
    {
      "inputs": [
        {
          "internalType": "uint256",
          "name": "tokenId",
          "type": "uint256"
        }
      ],
      "name": "ownerOf",
      "outputs": [
        {
          "internalType": "address",
          "name": "",
          "type": "address"
        }
      ],
      "stateMutability": "view",
      "type": "function"
    },
    {
      "inputs": [
        {
          "internalType": "uint256",
          "name": "tokenId",
          "type": "uint256"
        },
        {
          "internalType": "uint256",
          "name": "newScore",
          "type": "uint256"
        },
        {
          "internalType": "uint256",
          "name": "consecutivePayments",
          "type": "uint256"
        }
      ],
      "name": "recordPayment",
      "outputs": [],
      "stateMutability": "nonpayable",
      "type": "function"
    },
    {
      "inputs": [],
      "name": "renounceOwnership",
      "outputs": [],
      "stateMutability": "nonpayable",
      "type": "function"
    },
    {
      "inputs": [
        {
          "internalType": "address",
          "name": "from",
          "type": "address"
        },
        {
          "internalType": "address",
          "name": "to",
          "type": "address"
        },
        {
          "internalType": "uint256",
          "name": "tokenId",
          "type": "uint256"
        }
      ],
      "name": "safeTransferFrom",
      "outputs": [],
      "stateMutability": "nonpayable",
      "type": "function"
    },
    {
      "inputs": [
        {
          "internalType": "address",
          "name": "from",
          "type": "address"
        },
        {
          "internalType": "address",
          "name": "to",
          "type": "address"
        },
        {
          "internalType": "uint256",
          "name": "tokenId",
          "type": "uint256"
        },
        {
          "internalType": "bytes",
          "name": "data",
          "type": "bytes"
        }
      ],
      "name": "safeTransferFrom",
      "outputs": [],
      "stateMutability": "nonpayable",
      "type": "function"
    },
    {
      "inputs": [
        {
          "internalType": "address",
          "name": "operator",
          "type": "address"
        },
        {
          "internalType": "bool",
          "name": "approved",
          "type": "bool"
        }
      ],
      "name": "setApprovalForAll",
      "outputs": [],
      "stateMutability": "nonpayable",
      "type": "function"
    },
    {
      "inputs": [
        {
          "internalType": "bytes4",
          "name": "interfaceId",
          "type": "bytes4"
        }
      ],
      "name": "supportsInterface",
      "outputs": [
        {
          "internalType": "bool",
          "name": "",
          "type": "bool"
        }
      ],
      "stateMutability": "view",
      "type": "function"
    },
    {
      "inputs": [],
      "name": "symbol",
      "outputs": [
        {
          "internalType": "string",
          "name": "",
          "type": "string"
        }
      ],
      "stateMutability": "view",
      "type": "function"
    },
    {
      "inputs": [
        {
          "internalType": "uint256",
          "name": "tokenId",
          "type": "uint256"
        }
      ],
      "name": "tokenURI",
      "outputs": [
        {
          "internalType": "string",
          "name": "",
          "type": "string"
        }
      ],
      "stateMutability": "view",
      "type": "function"
    },
    {
      "inputs": [
        {
          "internalType": "address",
          "name": "from",
          "type": "address"
        },
        {
          "internalType": "address",
          "name": "to",
          "type": "address"
        },
        {
          "internalType": "uint256",
          "name": "tokenId",
          "type": "uint256"
        }
      ],
      "name": "transferFrom",
      "outputs": [],
      "stateMutability": "nonpayable",
      "type": "function"
    },
    {
      "inputs": [
        {
          "internalType": "address",
          "name": "newOwner",
          "type": "address"
        }
      ],
      "name": "transferOwnership",
      "outputs": [],
      "stateMutability": "nonpayable",
      "type": "function"
    },
    {
      "inputs": [
        {
          "internalType": "address",
          "name": "",
          "type": "address"
        },
        {
          "internalType": "uint256",
          "name": "",
          "type": "uint256"
        }
      ],
      "name": "userTokens",
      "outputs": [
        {
          "internalType": "uint256",
          "name": "",
          "type": "uint256"
        }
      ],
      "stateMutability": "view",
      "type": "function"
    }
  ],
  "bytecode": "0x60806040523480156200001157600080fd5b50604051620022103803806200221083398101604081905262000034916200015b565b806040518060400160405280601581526020017f4372656469742052657075746174696f6e204e465400000000000000000000008152506040518060400160405280600681526020016510d49151125560d21b81525081600090816200009b919062000232565b506001620000aa828262000232565b5050506001600160a01b038116620000dc57604051631e4fbdf760e01b81526000600482015260240160405180910390fd5b620000e78162000109565b5050336000908152600c60205260409020805460ff19166001179055620002fe565b600780546001600160a01b038381166001600160a01b0319831681179093556040519116919082907f8be0079c531659141344cd1fd0a4f28419497f9722a3daafe3b4186f6b6457e090600090a35050565b6000602082840312156200016e57600080fd5b81516001600160a01b03811681146200018657600080fd5b9392505050565b634e487b7160e01b600052604160045260246000fd5b600181811c90821680620001b857607f821691505b602082108103620001d957634e487b7160e01b600052602260045260246000fd5b50919050565b601f8211156200022d57600081815260208120601f850160051c81016020861015620002085750805b601f850160051c820191505b81811015620002295782815560010162000214565b5050505b505050565b81516001600160401b038111156200024e576200024e6200018d565b62000266816200025f8454620001a3565b84620001df565b602080601f8311600181146200029e5760008415620002855750858301515b600019600386901b1c1916600185901b17855562000229565b600085815260208120601f198616915b82811015620002cf57888601518255948401946001909101908401620002ae565b5085821015620002ee5787850151600019600388901b60f8161c191681555b5050505050600190811b01905550565b611f02806200030e6000396000f3fe608060405234801561001057600080fd5b50600436106101cf5760003560e01c80638da5cb5b11610104578063c5c2cbe8116100a2578063ea9be63e11610071578063ea9be63e1461045b578063f2fde38b1461046e578063f9f411d814610481578063fbe406e31461049457600080fd5b8063c5c2cbe81461040f578063c87b56dd14610422578063dabb93ca14610435578063e985e9c51461044857600080fd5b8063aa2fe91b116100de578063aa2fe91b146103bd578063ac281ca6146103e0578063b6a99bdb146103f3578063b88d4fde146103fc57600080fd5b80638da5cb5b1461039157806395d89b41146103a2578063a22cb465146103aa57600080fd5b80632c3bc312116101715780636352211e1161014b5780636352211e1461035057806370a0823114610363578063715018a61461037657806389370d8b1461037e57600080fd5b80632c3bc312146102a55780632d1c55de146102ce57806342842e0e1461033d57600080fd5b8063095ea7b3116101ad578063095ea7b31461023c5780630c9848321461025157806312503ab01461026457806323b872dd1461029257600080fd5b806301ffc9a7146101d457806306fdde03146101fc578063081812fc14610211575b600080fd5b6101e76101e23660046118b4565b610531565b60405190151581526020015b60405180910390f35b61020461055c565b6040516101f39190611921565b61022461021f366004611934565b6105ee565b6040516001600160a01b0390911681526020016101f3565b61024f61024a366004611969565b610617565b005b61024f61025f366004611993565b610626565b610284610272366004611993565b600b6020526000908152604090205481565b6040519081526020016101f3565b61024f6102a03660046119ae565b610652565b6102846102b3366004611993565b6001600160a01b03166000908152600b602052604090205490565b6102e16102dc366004611934565b6106e2565b6040516101f3919081518152602080830151908201526040808301516001600160a01b031690820152606080830151908201526080808301519082015260a0808301519082015260c09182015115159181019190915260e00190565b61024f61034b3660046119ae565b6107d2565b61022461035e366004611934565b6107f2565b610284610371366004611993565b6107fd565b61024f610845565b61028461038c366004611934565b610859565b6007546001600160a01b0316610224565b610204610918565b61024f6103b83660046119ea565b610927565b6101e76103cb366004611993565b600c6020526000908152604090205460ff1681565b61024f6103ee366004611a26565b610932565b6102846101f481565b61024f61040a366004611ade565b610a68565b61024f61041d366004611b5a565b610a80565b610204610430366004611934565b610b81565b610284610443366004611ba6565b610c92565b6101e7610456366004611bdb565b610cfe565b610284610469366004611c05565b610d2c565b61024f61047c366004611993565b610e2b565b61028461048f366004611969565b610e69565b6104ec6104a2366004611934565b6009602052600090815260409020805460018201546002830154600384015460048501546005860154600690960154949593946001600160a01b0390931693919290919060ff1687565b6040805197885260208801969096526001600160a01b03909416948601949094526060850191909152608084015260a0830191909152151560c082015260e0016101f3565b60006001600160e01b03198216632483248360e11b1480610556575061055682610e9a565b92915050565b60606000805461056b90611c5a565b80601f016020809104026020016040519081016040528092919081815260200182805461059790611c5a565b80156105e45780601f106105b9576101008083540402835291602001916105e4565b820191906000526020600020905b8154815290600101906020018083116105c757829003601f168201915b5050505050905090565b60006105f982610eea565b506000828152600460205260409020546001600160a01b0316610556565b610622828233610f23565b5050565b61062e610f30565b6001600160a01b03166000908152600c60205260409020805460ff19166001179055565b6001600160a01b03821661068157604051633250574960e11b8152600060048201526024015b60405180910390fd5b600061068e838333610f5d565b9050836001600160a01b0316816001600160a01b0316146106dc576040516364283d7b60e01b81526001600160a01b0380861660048301526024820184905282166044820152606401610678565b50505050565b61072d6040518060e00160405280600081526020016000815260200160006001600160a01b031681526020016000815260200160008152602001600081526020016000151581525090565b6000828152600260205260409020546001600160a01b03166107615760405162461bcd60e51b815260040161067890611c94565b50600090815260096020908152604091829020825160e0810184528154815260018201549281019290925260028101546001600160a01b0316928201929092526003820154606082015260048201546080820152600582015460a082015260069091015460ff16151560c082015290565b6107ed83838360405180602001604052806000815250610a68565b505050565b600061055682610eea565b60006001600160a01b038216610829576040516322718ad960e21b815260006004820152602401610678565b506001600160a01b031660009081526003602052604090205490565b61084d610f30565b6108576000611056565b565b6000818152600260205260408120546001600160a01b031661088d5760405162461bcd60e51b815260040161067890611c94565b600082815260096020908152604091829020825160e0810184528154808252600183015493820184905260028301546001600160a01b0316948201949094526003820154606082015260048201546080820152600582015460a082015260069091015460ff16151560c082015291600a9161090791611cd8565b6109119190611cef565b9392505050565b60606001805461056b90611c5a565b6106223383836110a8565b336000908152600c602052604090205460ff166109825760405162461bcd60e51b815260206004820152600e60248201526d139bdd08185d5d1a1bdc9a5e995960921b6044820152606401610678565b6000838152600260205260409020546001600160a01b03166109b65760405162461bcd60e51b815260040161067890611c94565b6103e8821115610a005760405162461bcd60e51b8152602060048201526015602482015274496e76616c6964207061796d656e742073636f726560581b6044820152606401610678565b600083815260096020526040902082815560018101829055610a228383611147565b6003820155604080518481526020810184905285917f5c6242d6a3f0201795f1790f1a8966d39815f3483e3a7f93a8f730ab673ee9b6910160405180910390a250505050565b610a73848484610652565b6106dc3385858585611169565b6000828152600260205260409020546001600160a01b03163314610ad65760405162461bcd60e51b815260206004820152600d60248201526c2737ba103a34329037bbb732b960991b6044820152606401610678565b6001600160a01b038116610b255760405162461bcd60e51b8152602060048201526016602482015275496e76616c69642077616c6c6574206164647265737360501b6044820152606401610678565b60008281526009602052604080822060020180546001600160a01b0319166001600160a01b0385169081179091559051909184917f68b91b3e270e4f17902300a997239fe64d5e6143d335c9810b8fd94c36a79f249190a35050565b6060610b8c82610eea565b5060008281526006602052604081208054610ba690611c5a565b80601f0160208091040260200160405190810160405280929190818152602001828054610bd290611c5a565b8015610c1f5780601f10610bf457610100808354040283529160200191610c1f565b820191906000526020600020905b815481529060010190602001808311610c0257829003601f168201915b505050505090506000610c3d60408051602081019091526000815290565b90508051600003610c4f575092915050565b815115610c81578082604051602001610c69929190611d11565b60405160208183030381529060405292505050919050565b610c8a84611294565b949350505050565b336000908152600b602052604081205415610cef5760405162461bcd60e51b815260206004820152601760248201527f50617373706f727420616c7265616479206578697374730000000000000000006044820152606401610678565b610556336101f4600085611308565b6001600160a01b03918216600090815260056020908152604080832093909416825291909152205460ff1690565b336000908152600c602052604081205460ff16610d845760405162461bcd60e51b8152602060048201526016602482015275139bdd08185d5d1a1bdc9a5e9959081d1bc81b5a5b9d60521b6044820152606401610678565b6103e8841115610dce5760405162461bcd60e51b8152602060048201526015602482015274496e76616c6964207061796d656e742073636f726560581b6044820152606401610678565b6001600160a01b038516610e165760405162461bcd60e51b815260206004820152600f60248201526e496e76616c6964206164647265737360881b6044820152606401610678565b610e2285858585611308565b95945050505050565b610e33610f30565b6001600160a01b038116610e5d57604051631e4fbdf760e01b815260006004820152602401610678565b610e6681611056565b50565b600a6020528160005260406000208181548110610e8557600080fd5b90600052602060002001600091509150505481565b60006001600160e01b031982166380ac58cd60e01b1480610ecb57506001600160e01b03198216635b5e139f60e01b145b8061055657506301ffc9a760e01b6001600160e01b0319831614610556565b6000818152600260205260408120546001600160a01b03168061055657604051637e27328960e01b815260048101849052602401610678565b6107ed83838360016114b1565b6007546001600160a01b031633146108575760405163118cdaa760e01b8152336004820152602401610678565b6000828152600260205260408120546001600160a01b0390811690831615610f8a57610f8a8184866115b7565b6001600160a01b03811615610fc857610fa76000856000806114b1565b6001600160a01b038116600090815260036020526040902080546000190190555b6001600160a01b03851615610ff7576001600160a01b0385166000908152600360205260409020805460010190555b60008481526002602052604080822080546001600160a01b0319166001600160a01b0389811691821790925591518793918516917fddf252ad1be2c89b69c2b068fc378daa952ba7f163c4a11628f55a4df523b3ef91a4949350505050565b600780546001600160a01b038381166001600160a01b0319831681179093556040519116919082907f8be0079c531659141344cd1fd0a4f28419497f9722a3daafe3b4186f6b6457e090600090a35050565b6001600160a01b0382166110da57604051630b61174360e31b81526001600160a01b0383166004820152602401610678565b6001600160a01b03838116600081815260056020908152604080832094871680845294825291829020805460ff191686151590811790915591519182527f17307eab39ab6107e8899845ad3d59bd9653f200f220920489ca2b5937696c31910160405180910390a3505050565b6000611154826002611cd8565b61115f600a85611cef565b6109119190611d40565b6001600160a01b0383163b1561128d57604051630a85bd0160e11b81526001600160a01b0384169063150b7a02906111ab908890889087908790600401611d53565b6020604051808303816000875af19250505080156111e6575060408051601f3d908101601f191682019092526111e391810190611d90565b60015b61124f573d808015611214576040519150601f19603f3d011682016040523d82523d6000602084013e611219565b606091505b50805160000361124757604051633250574960e11b81526001600160a01b0385166004820152602401610678565b805160208201fd5b6001600160e01b03198116630a85bd0160e11b1461128b57604051633250574960e11b81526001600160a01b0385166004820152602401610678565b505b5050505050565b606061129f82610eea565b5060006112b760408051602081019091526000815290565b905060008151116112d75760405180602001604052806000815250610911565b806112e18461161b565b6040516020016112f2929190611d11565b6040516020818303038152906040529392505050565b600880546000918261131983611dad565b909155505060085461132b86826116ae565b6113358184611713565b60006113418686611147565b6040805160e0810182528881526020808201898152600083850181815260608501878152608086018381524260a0880190815260c088018581528c8652600988528986209851895595516001808a019190915593516002890180546001600160a01b0319166001600160a01b03928316179055925160038901559051600488015551600587015592516006909501805460ff191695151595909517909455908c16808252600a8352848220805494850181558252828220909301879055918252600b90522054909150158061144057506001600160a01b0387166000908152600b60209081526040808320548352600990915280822054848352912054115b15611461576001600160a01b0387166000908152600b602052604090208290555b60408051878152602081018790526001600160a01b0389169184917f27ae3c94174cc1669ffe761d033fc44d037819105e2b819dd6c3b2a25cb63712910160405180910390a35095945050505050565b80806114c557506001600160a01b03821615155b156115875760006114d584610eea565b90506001600160a01b038316158015906115015750826001600160a01b0316816001600160a01b031614155b801561151457506115128184610cfe565b155b1561153d5760405163a9fbf51f60e01b81526001600160a01b0384166004820152602401610678565b81156115855783856001600160a01b0316826001600160a01b03167f8c5be1e5ebec7d5bd14f71427d1e84f3dd0314c0f7b2291e5b200ac8c7c3b92560405160405180910390a45b505b5050600090815260046020526040902080546001600160a01b0319166001600160a01b0392909216919091179055565b6115c2838383611763565b6107ed576001600160a01b0383166115f057604051637e27328960e01b815260048101829052602401610678565b60405163177e802f60e01b81526001600160a01b038316600482015260248101829052604401610678565b60606000611628836117c6565b600101905060008167ffffffffffffffff81111561164857611648611a52565b6040519080825280601f01601f191660200182016040528015611672576020820181803683370190505b5090508181016020015b600019016f181899199a1a9b1b9c1cb0b131b232b360811b600a86061a8153600a850494508461167c57509392505050565b6001600160a01b0382166116d857604051633250574960e11b815260006004820152602401610678565b60006116e683836000610f5d565b90506001600160a01b038116156107ed576040516339e3563760e11b815260006004820152602401610678565b600082815260066020526040902061172b8282611e0c565b506040518281527ff8e1a15aba9398e019f0b49df1a4fde98ee17ae345cb5f6b5e2c27f5033e8ce79060200160405180910390a15050565b60006001600160a01b03831615801590610c8a5750826001600160a01b0316846001600160a01b0316148061179d575061179d8484610cfe565b80610c8a5750506000908152600460205260409020546001600160a01b03908116911614919050565b60008072184f03e93ff9f4daa797ed6e38ed64bf6a1f0160401b83106118055772184f03e93ff9f4daa797ed6e38ed64bf6a1f0160401b830492506040015b6d04ee2d6d415b85acef81000000008310611831576d04ee2d6d415b85acef8100000000830492506020015b662386f26fc10000831061184f57662386f26fc10000830492506010015b6305f5e1008310611867576305f5e100830492506008015b612710831061187b57612710830492506004015b6064831061188d576064830492506002015b600a83106105565760010192915050565b6001600160e01b031981168114610e6657600080fd5b6000602082840312156118c657600080fd5b81356109118161189e565b60005b838110156118ec5781810151838201526020016118d4565b50506000910152565b6000815180845261190d8160208601602086016118d1565b601f01601f19169290920160200192915050565b60208152600061091160208301846118f5565b60006020828403121561194657600080fd5b5035919050565b80356001600160a01b038116811461196457600080fd5b919050565b6000806040838503121561197c57600080fd5b6119858361194d565b946020939093013593505050565b6000602082840312156119a557600080fd5b6109118261194d565b6000806000606084860312156119c357600080fd5b6119cc8461194d565b92506119da6020850161194d565b9150604084013590509250925092565b600080604083850312156119fd57600080fd5b611a068361194d565b915060208301358015158114611a1b57600080fd5b809150509250929050565b600080600060608486031215611a3b57600080fd5b505081359360208301359350604090920135919050565b634e487b7160e01b600052604160045260246000fd5b600067ffffffffffffffff80841115611a8357611a83611a52565b604051601f8501601f19908116603f01168101908282118183101715611aab57611aab611a52565b81604052809350858152868686011115611ac457600080fd5b858560208301376000602087830101525050509392505050565b60008060008060808587031215611af457600080fd5b611afd8561194d565b9350611b0b6020860161194d565b925060408501359150606085013567ffffffffffffffff811115611b2e57600080fd5b8501601f81018713611b3f57600080fd5b611b4e87823560208401611a68565b91505092959194509250565b60008060408385031215611b6d57600080fd5b82359150611b7d6020840161194d565b90509250929050565b600082601f830112611b9757600080fd5b61091183833560208501611a68565b600060208284031215611bb857600080fd5b813567ffffffffffffffff811115611bcf57600080fd5b610c8a84828501611b86565b60008060408385031215611bee57600080fd5b611bf78361194d565b9150611b7d6020840161194d565b60008060008060808587031215611c1b57600080fd5b611c248561194d565b93506020850135925060408501359150606085013567ffffffffffffffff811115611c4e57600080fd5b611b4e87828801611b86565b600181811c90821680611c6e57607f821691505b602082108103611c8e57634e487b7160e01b600052602260045260246000fd5b50919050565b602080825260149082015273151bdad95b88191bd95cc81b9bdd08195e1a5cdd60621b604082015260600190565b634e487b7160e01b600052601160045260246000fd5b808202811582820484141761055657610556611cc2565b600082611d0c57634e487b7160e01b600052601260045260246000fd5b500490565b60008351611d238184602088016118d1565b835190830190611d378183602088016118d1565b01949350505050565b8082018082111561055657610556611cc2565b6001600160a01b0385811682528416602082015260408101839052608060608201819052600090611d86908301846118f5565b9695505050505050565b600060208284031215611da257600080fd5b81516109118161189e565b600060018201611dbf57611dbf611cc2565b5060010190565b601f8211156107ed57600081815260208120601f850160051c81016020861015611ded5750805b601f850160051c820191505b8181101561128b57828155600101611df9565b815167ffffffffffffffff811115611e2657611e26611a52565b611e3a81611e348454611c5a565b84611dc6565b602080601f831160018114611e6f5760008415611e575750858301515b600019600386901b1c1916600185901b17855561128b565b600085815260208120601f198616915b82811015611e9e57888601518255948401946001909101908401611e7f565b5085821015611ebc5787850151600019600388901b60f8161c191681555b5050505050600190811b0190555056fea26469706673582212204e0db1639f87f4cd08c9b5a8c0bfbb638ba5fb16e975fe1b03646f246667036b64736f6c63430008140033",
  "linkReferences": {},
  "deployedLinkReferences": {}
}