{
  "_format": "hh-sol-artifact-1",
  "contractName": "MockMonad",
  "sourceName": "contracts/MockCCOP.sol",
  "abi": [
    {
      "inputs": [
        {
          "internalType": "address",
          "name": "initialOwner",
          "type": "address"
        }
      ],
      "stateMutability": "nonpayable",
      "type": "constructor"
    },
    {
      "inputs": [
        {
          "internalType": "address",
          "name": "spender",
          "type": "address"
        },
        {
          "internalType": "uint256",
          "name": "allowance",
          "type": "uint256"
        },
        {
          "internalType": "uint256",
          "name": "needed",
          "type": "uint256"
        }
      ],
      "name": "ERC20InsufficientAllowance",
      "type": "error"
    },
    {
      "inputs": [
        {
          "internalType": "address",
          "name": "sender",
          "type": "address"
        },
        {
          "internalType": "uint256",
          "name": "balance",
          "type": "uint256"
        },
        {
          "internalType": "uint256",
          "name": "needed",
          "type": "uint256"
        }
      ],
      "name": "ERC20InsufficientBalance",
      "type": "error"
    },
    {
      "inputs": [
        {
          "internalType": "address",
          "name": "approver",
          "type": "address"
        }
      ],
      "name": "ERC20InvalidApprover",
      "type": "error"
    },
    {
      "inputs": [
        {
          "internalType": "address",
          "name": "receiver",
          "type": "address"
        }
      ],
      "name": "ERC20InvalidReceiver",
      "type": "error"
    },
    {
      "inputs": [
        {
          "internalType": "address",
          "name": "sender",
          "type": "address"
        }
      ],
      "name": "ERC20InvalidSender",
      "type": "error"
    },
    {
      "inputs": [
        {
          "internalType": "address",
          "name": "spender",
          "type": "address"
        }
      ],
      "name": "ERC20InvalidSpender",
      "type": "error"
    },
    {
      "inputs": [
        {
          "internalType": "address",
          "name": "owner",
          "type": "address"
        }
      ],
      "name": "OwnableInvalidOwner",
      "type": "error"
    },
    {
      "inputs": [
        {
          "internalType": "address",
          "name": "account",
          "type": "address"
        }
      ],
      "name": "OwnableUnauthorizedAccount",
      "type": "error"
    },
    {
      "anonymous": false,
      "inputs": [
        {
          "indexed": true,
          "internalType": "address",
          "name": "owner",
          "type": "address"
        },
        {
          "indexed": true,
          "internalType": "address",
          "name": "spender",
          "type": "address"
        },
        {
          "indexed": false,
          "internalType": "uint256",
          "name": "value",
          "type": "uint256"
        }
      ],
      "name": "Approval",
      "type": "event"
    },
    {
      "anonymous": false,
      "inputs": [
        {
          "indexed": true,
          "internalType": "address",
          "name": "previousOwner",
          "type": "address"
        },
        {
          "indexed": true,
          "internalType": "address",
          "name": "newOwner",
          "type": "address"
        }
      ],
      "name": "OwnershipTransferred",
      "type": "event"
    },
    {
      "anonymous": false,
      "inputs": [
        {
          "indexed": true,
          "internalType": "address",
          "name": "from",
          "type": "address"
        },
        {
          "indexed": true,
          "internalType": "address",
          "name": "to",
          "type": "address"
        },
        {
          "indexed": false,
          "internalType": "uint256",
          "name": "value",
          "type": "uint256"
        }
      ],
      "name": "Transfer",
      "type": "event"
    },
    {
      "inputs": [
        {
          "internalType": "address",
          "name": "owner",
          "type": "address"
        },
        {
          "internalType": "address",
          "name": "spender",
          "type": "address"
        }
      ],
      "name": "allowance",
      "outputs": [
        {
          "internalType": "uint256",
          "name": "",
          "type": "uint256"
        }
      ],
      "stateMutability": "view",
      "type": "function"
    },
    {
      "inputs": [
        {
          "internalType": "address",
          "name": "spender",
          "type": "address"
        },
        {
          "internalType": "uint256",
          "name": "value",
          "type": "uint256"
        }
      ],
      "name": "approve",
      "outputs": [
        {
          "internalType": "bool",
          "name": "",
          "type": "bool"
        }
      ],
      "stateMutability": "nonpayable",
      "type": "function"
    },
    {
      "inputs": [
        {
          "internalType": "address",
          "name": "account",
          "type": "address"
        }
      ],
      "name": "balanceOf",
      "outputs": [
        {
          "internalType": "uint256",
          "name": "",
          "type": "uint256"
        }
      ],
      "stateMutability": "view",
      "type": "function"
    },
    {
      "inputs": [],
      "name": "decimals",
      "outputs": [
        {
          "internalType": "uint8",
          "name": "",
          "type": "uint8"
        }
      ],
      "stateMutability": "view",
      "type": "function"
    },
    {
      "inputs": [],
      "name": "faucet",
      "outputs": [],
      "stateMutability": "nonpayable",
      "type": "function"
    },
    {
      "inputs": [
        {
          "internalType": "address",
          "name": "to",
          "type": "address"
        },
        {
          "internalType": "uint256",
          "name": "amount",
          "type": "uint256"
        }
      ],
      "name": "mint",
      "outputs": [],
      "stateMutability": "nonpayable",
      "type": "function"
    },
    {
      "inputs": [],
      "name": "name",
      "outputs": [
        {
          "internalType": "string",
          "name": "",
          "type": "string"
        }
      ],
      "stateMutability": "view",
      "type": "function"
    },
    {
      "inputs": [],
      "name": "owner",
      "outputs": [
        {
          "internalType": "address",
          "name": "",
          "type": "address"
        }
      ],
      "stateMutability": "view",
      "type": "function"
    },
    {
      "inputs": [],
      "name": "renounceOwnership",
      "outputs": [],
      "stateMutability": "nonpayable",
      "type": "function"
    },
    {
      "inputs": [],
      "name": "symbol",
      "outputs": [
        {
          "internalType": "string",
          "name": "",
          "type": "string"
        }
      ],
      "stateMutability": "view",
      "type": "function"
    },
    {
      "inputs": [],
      "name": "totalSupply",
      "outputs": [
        {
          "internalType": "uint256",
          "name": "",
          "type": "uint256"
        }
      ],
      "stateMutability": "view",
      "type": "function"
    },
    {
      "inputs": [
        {
          "internalType": "address",
          "name": "to",
          "type": "address"
        },
        {
          "internalType": "uint256",
          "name": "value",
          "type": "uint256"
        }
      ],
      "name": "transfer",
      "outputs": [
        {
          "internalType": "bool",
          "name": "",
          "type": "bool"
        }
      ],
      "stateMutability": "nonpayable",
      "type": "function"
    },
    {
      "inputs": [
        {
          "internalType": "address",
          "name": "from",
          "type": "address"
        },
        {
          "internalType": "address",
          "name": "to",
          "type": "address"
        },
        {
          "internalType": "uint256",
          "name": "value",
          "type": "uint256"
        }
      ],
      "name": "transferFrom",
      "outputs": [
        {
          "internalType": "bool",
          "name": "",
          "type": "bool"
        }
      ],
      "stateMutability": "nonpayable",
      "type": "function"
    },
    {
      "inputs": [
        {
          "internalType": "address",
          "name": "newOwner",
          "type": "address"
        }
      ],
      "name": "transferOwnership",
      "outputs": [],
      "stateMutability": "nonpayable",
      "type": "function"
    }
  ],
  "bytecode": "0x60806040523480156200001157600080fd5b5060405162000ff238038062000ff28339810160408190526200003491620002ce565b806040518060400160405280601081526020016f26b7b1b59026b7b730b2102a37b5b2b760811b815250604051806040016040528060068152602001651b535bdb985960d21b81525081600390816200008e9190620003a5565b5060046200009d8282620003a5565b5050506001600160a01b038116620000d057604051631e4fbdf760e01b8152600060048201526024015b60405180910390fd5b620000db816200010b565b506200010481620000ef6012600a62000586565b620000fe90620f424062000597565b6200015d565b50620005c7565b600580546001600160a01b038381166001600160a01b0319831681179093556040519116919082907f8be0079c531659141344cd1fd0a4f28419497f9722a3daafe3b4186f6b6457e090600090a35050565b6001600160a01b038216620001895760405163ec442f0560e01b815260006004820152602401620000c7565b62000197600083836200019b565b5050565b6001600160a01b038316620001ca578060026000828254620001be9190620005b1565b909155506200023e9050565b6001600160a01b038316600090815260208190526040902054818110156200021f5760405163391434e360e21b81526001600160a01b03851660048201526024810182905260448101839052606401620000c7565b6001600160a01b03841660009081526020819052604090209082900390555b6001600160a01b0382166200025c576002805482900390556200027b565b6001600160a01b03821660009081526020819052604090208054820190555b816001600160a01b0316836001600160a01b03167fddf252ad1be2c89b69c2b068fc378daa952ba7f163c4a11628f55a4df523b3ef83604051620002c191815260200190565b60405180910390a3505050565b600060208284031215620002e157600080fd5b81516001600160a01b0381168114620002f957600080fd5b9392505050565b634e487b7160e01b600052604160045260246000fd5b600181811c908216806200032b57607f821691505b6020821081036200034c57634e487b7160e01b600052602260045260246000fd5b50919050565b601f821115620003a057600081815260208120601f850160051c810160208610156200037b5750805b601f850160051c820191505b818110156200039c5782815560010162000387565b5050505b505050565b81516001600160401b03811115620003c157620003c162000300565b620003d981620003d2845462000316565b8462000352565b602080601f831160018114620004115760008415620003f85750858301515b600019600386901b1c1916600185901b1785556200039c565b600085815260208120601f198616915b82811015620004425788860151825594840194600190910190840162000421565b5085821015620004615787850151600019600388901b60f8161c191681555b5050505050600190811b01905550565b634e487b7160e01b600052601160045260246000fd5b600181815b80851115620004c8578160001904821115620004ac57620004ac62000471565b80851615620004ba57918102915b93841c93908002906200048c565b509250929050565b600082620004e15750600162000580565b81620004f05750600062000580565b8160018114620005095760028114620005145762000534565b600191505062000580565b60ff84111562000528576200052862000471565b50506001821b62000580565b5060208310610133831016604e8410600b841016171562000559575081810a62000580565b62000565838362000487565b80600019048211156200057c576200057c62000471565b0290505b92915050565b6000620002f960ff841683620004d0565b808202811582820484141762000580576200058062000471565b8082018082111562000580576200058062000471565b610a1b80620005d76000396000f3fe608060405234801561001057600080fd5b50600436106100ea5760003560e01c8063715018a61161008c578063a9059cbb11610066578063a9059cbb146101cd578063dd62ed3e146101e0578063de5f72fd14610219578063f2fde38b1461022157600080fd5b8063715018a6146101a25780638da5cb5b146101aa57806395d89b41146101c557600080fd5b806323b872dd116100c857806323b872dd14610142578063313ce5671461015557806340c10f191461016457806370a082311461017957600080fd5b806306fdde03146100ef578063095ea7b31461010d57806318160ddd14610130575b600080fd5b6100f7610234565b6040516101049190610753565b60405180910390f35b61012061011b3660046107bd565b6102c6565b6040519015158152602001610104565b6002545b604051908152602001610104565b6101206101503660046107e7565b6102e0565b60405160128152602001610104565b6101776101723660046107bd565b610304565b005b610134610187366004610823565b6001600160a01b031660009081526020819052604090205490565b61017761031a565b6005546040516001600160a01b039091168152602001610104565b6100f761032e565b6101206101db3660046107bd565b61033d565b6101346101ee366004610845565b6001600160a01b03918216600090815260016020908152604080832093909416825291909152205490565b61017761034b565b61017761022f366004610823565b61036c565b60606003805461024390610878565b80601f016020809104026020016040519081016040528092919081815260200182805461026f90610878565b80156102bc5780601f10610291576101008083540402835291602001916102bc565b820191906000526020600020905b81548152906001019060200180831161029f57829003601f168201915b5050505050905090565b6000336102d48185856103af565b60019150505b92915050565b6000336102ee8582856103c1565b6102f9858585610440565b506001949350505050565b61030c61049f565b61031682826104cc565b5050565b61032261049f565b61032c6000610502565b565b60606004805461024390610878565b6000336102d4818585610440565b61032c3361035b6012600a6109ac565b610367906103e86109bb565b6104cc565b61037461049f565b6001600160a01b0381166103a357604051631e4fbdf760e01b8152600060048201526024015b60405180910390fd5b6103ac81610502565b50565b6103bc8383836001610554565b505050565b6001600160a01b0383811660009081526001602090815260408083209386168352929052205460001981101561043a578181101561042b57604051637dc7a0d960e11b81526001600160a01b0384166004820152602481018290526044810183905260640161039a565b61043a84848484036000610554565b50505050565b6001600160a01b03831661046a57604051634b637e8f60e11b81526000600482015260240161039a565b6001600160a01b0382166104945760405163ec442f0560e01b81526000600482015260240161039a565b6103bc838383610629565b6005546001600160a01b0316331461032c5760405163118cdaa760e01b815233600482015260240161039a565b6001600160a01b0382166104f65760405163ec442f0560e01b81526000600482015260240161039a565b61031660008383610629565b600580546001600160a01b038381166001600160a01b0319831681179093556040519116919082907f8be0079c531659141344cd1fd0a4f28419497f9722a3daafe3b4186f6b6457e090600090a35050565b6001600160a01b03841661057e5760405163e602df0560e01b81526000600482015260240161039a565b6001600160a01b0383166105a857604051634a1406b160e11b81526000600482015260240161039a565b6001600160a01b038085166000908152600160209081526040808320938716835292905220829055801561043a57826001600160a01b0316846001600160a01b03167f8c5be1e5ebec7d5bd14f71427d1e84f3dd0314c0f7b2291e5b200ac8c7c3b9258460405161061b91815260200190565b60405180910390a350505050565b6001600160a01b03831661065457806002600082825461064991906109d2565b909155506106c69050565b6001600160a01b038316600090815260208190526040902054818110156106a75760405163391434e360e21b81526001600160a01b0385166004820152602481018290526044810183905260640161039a565b6001600160a01b03841660009081526020819052604090209082900390555b6001600160a01b0382166106e257600280548290039055610701565b6001600160a01b03821660009081526020819052604090208054820190555b816001600160a01b0316836001600160a01b03167fddf252ad1be2c89b69c2b068fc378daa952ba7f163c4a11628f55a4df523b3ef8360405161074691815260200190565b60405180910390a3505050565b600060208083528351808285015260005b8181101561078057858101830151858201604001528201610764565b506000604082860101526040601f19601f8301168501019250505092915050565b80356001600160a01b03811681146107b857600080fd5b919050565b600080604083850312156107d057600080fd5b6107d9836107a1565b946020939093013593505050565b6000806000606084860312156107fc57600080fd5b610805846107a1565b9250610813602085016107a1565b9150604084013590509250925092565b60006020828403121561083557600080fd5b61083e826107a1565b9392505050565b6000806040838503121561085857600080fd5b610861836107a1565b915061086f602084016107a1565b90509250929050565b600181811c9082168061088c57607f821691505b6020821081036108ac57634e487b7160e01b600052602260045260246000fd5b50919050565b634e487b7160e01b600052601160045260246000fd5b600181815b808511156109035781600019048211156108e9576108e96108b2565b808516156108f657918102915b93841c93908002906108cd565b509250929050565b60008261091a575060016102da565b81610927575060006102da565b816001811461093d576002811461094757610963565b60019150506102da565b60ff841115610958576109586108b2565b50506001821b6102da565b5060208310610133831016604e8410600b8410161715610986575081810a6102da565b61099083836108c8565b80600019048211156109a4576109a46108b2565b029392505050565b600061083e60ff84168361090b565b80820281158282048414176102da576102da6108b2565b808201808211156102da576102da6108b256fea264697066735822122082ab70d0e1192f082e6955223ff3acbca45e6bad5b5c11e154aba73d77efedb364736f6c63430008140033",
  "linkReferences": {},
  "deployedLinkReferences": {}
}