{
  "_format": "hh-sol-artifact-1",
  "contractName": "RewardSystem",
  "sourceName": "contracts/RewardSystem.sol",
  "abi": [
    {
      "inputs": [
        {
          "internalType": "address",
          "name": "initialOwner",
          "type": "address"
        },
        {
          "internalType": "address",
          "name": "_Monad",
          "type": "address"
        },
        {
          "internalType": "address",
          "name": "_creditNFTContract",
          "type": "address"
        }
      ],
      "stateMutability": "nonpayable",
      "type": "constructor"
    },
    {
      "inputs": [
        {
          "internalType": "address",
          "name": "owner",
          "type": "address"
        }
      ],
      "name": "OwnableInvalidOwner",
      "type": "error"
    },
    {
      "inputs": [
        {
          "internalType": "address",
          "name": "account",
          "type": "address"
        }
      ],
      "name": "OwnableUnauthorizedAccount",
      "type": "error"
    },
    {
      "inputs": [],
      "name": "ReentrancyGuardReentrantCall",
      "type": "error"
    },
    {
      "inputs": [
        {
          "internalType": "address",
          "name": "token",
          "type": "address"
        }
      ],
      "name": "SafeERC20FailedOperation",
      "type": "error"
    },
    {
      "anonymous": false,
      "inputs": [
        {
          "indexed": true,
          "internalType": "address",
          "name": "previousOwner",
          "type": "address"
        },
        {
          "indexed": true,
          "internalType": "address",
          "name": "newOwner",
          "type": "address"
        }
      ],
      "name": "OwnershipTransferred",
      "type": "event"
    },
    {
      "anonymous": false,
      "inputs": [
        {
          "indexed": true,
          "internalType": "uint256",
          "name": "tokenId",
          "type": "uint256"
        },
        {
          "indexed": true,
          "internalType": "address",
          "name": "user",
          "type": "address"
        },
        {
          "indexed": false,
          "internalType": "uint256",
          "name": "rewardAmount",
          "type": "uint256"
        }
      ],
      "name": "PaymentRecorded",
      "type": "event"
    },
    {
      "anonymous": false,
      "inputs": [
        {
          "indexed": true,
          "internalType": "uint256",
          "name": "tokenId",
          "type": "uint256"
        },
        {
          "indexed": true,
          "internalType": "address",
          "name": "recipient",
          "type": "address"
        },
        {
          "indexed": false,
          "internalType": "uint256",
          "name": "amount",
          "type": "uint256"
        },
        {
          "indexed": false,
          "internalType": "uint256",
          "name": "reputation",
          "type": "uint256"
        }
      ],
      "name": "RewardClaimed",
      "type": "event"
    },
    {
      "inputs": [],
      "name": "Monad",
      "outputs": [
        {
          "internalType": "contract IERC20",
          "name": "",
          "type": "address"
        }
      ],
      "stateMutability": "view",
      "type": "function"
    },
    {
      "inputs": [
        {
          "internalType": "address",
          "name": "",
          "type": "address"
        }
      ],
      "name": "activeLoans",
      "outputs": [
        {
          "internalType": "uint256",
          "name": "",
          "type": "uint256"
        }
      ],
      "stateMutability": "view",
      "type": "function"
    },
    {
      "inputs": [
        {
          "internalType": "address",
          "name": "registrar",
          "type": "address"
        }
      ],
      "name": "authorizeRegistrar",
      "outputs": [],
      "stateMutability": "nonpayable",
      "type": "function"
    },
    {
      "inputs": [
        {
          "internalType": "address",
          "name": "",
          "type": "address"
        }
      ],
      "name": "authorizedRegistrars",
      "outputs": [
        {
          "internalType": "bool",
          "name": "",
          "type": "bool"
        }
      ],
      "stateMutability": "view",
      "type": "function"
    },
    {
      "inputs": [],
      "name": "baseReward",
      "outputs": [
        {
          "internalType": "uint256",
          "name": "",
          "type": "uint256"
        }
      ],
      "stateMutability": "view",
      "type": "function"
    },
    {
      "inputs": [
        {
          "internalType": "address",
          "name": "",
          "type": "address"
        }
      ],
      "name": "creditLimit",
      "outputs": [
        {
          "internalType": "uint256",
          "name": "",
          "type": "uint256"
        }
      ],
      "stateMutability": "view",
      "type": "function"
    },
    {
      "inputs": [],
      "name": "creditNFTContract",
      "outputs": [
        {
          "internalType": "address",
          "name": "",
          "type": "address"
        }
      ],
      "stateMutability": "view",
      "type": "function"
    },
    {
      "inputs": [
        {
          "internalType": "uint256",
          "name": "amount",
          "type": "uint256"
        }
      ],
      "name": "depositFunds",
      "outputs": [],
      "stateMutability": "nonpayable",
      "type": "function"
    },
    {
      "inputs": [
        {
          "internalType": "address",
          "name": "user",
          "type": "address"
        }
      ],
      "name": "getCreditInfo",
      "outputs": [
        {
          "internalType": "uint256",
          "name": "limit",
          "type": "uint256"
        },
        {
          "internalType": "uint256",
          "name": "active",
          "type": "uint256"
        },
        {
          "internalType": "uint256",
          "name": "available",
          "type": "uint256"
        }
      ],
      "stateMutability": "view",
      "type": "function"
    },
    {
      "inputs": [],
      "name": "interestRate",
      "outputs": [
        {
          "internalType": "uint256",
          "name": "",
          "type": "uint256"
        }
      ],
      "stateMutability": "view",
      "type": "function"
    },
    {
      "inputs": [
        {
          "internalType": "uint256",
          "name": "",
          "type": "uint256"
        }
      ],
      "name": "lastClaimed",
      "outputs": [
        {
          "internalType": "uint256",
          "name": "",
          "type": "uint256"
        }
      ],
      "stateMutability": "view",
      "type": "function"
    },
    {
      "inputs": [],
      "name": "owner",
      "outputs": [
        {
          "internalType": "address",
          "name": "",
          "type": "address"
        }
      ],
      "stateMutability": "view",
      "type": "function"
    },
    {
      "inputs": [
        {
          "internalType": "uint256",
          "name": "tokenId",
          "type": "uint256"
        }
      ],
      "name": "recordPayment",
      "outputs": [],
      "stateMutability": "nonpayable",
      "type": "function"
    },
    {
      "inputs": [],
      "name": "renounceOwnership",
      "outputs": [],
      "stateMutability": "nonpayable",
      "type": "function"
    },
    {
      "inputs": [],
      "name": "rewardRate",
      "outputs": [
        {
          "internalType": "uint256",
          "name": "",
          "type": "uint256"
        }
      ],
      "stateMutability": "view",
      "type": "function"
    },
    {
      "inputs": [
        {
          "internalType": "uint256",
          "name": "",
          "type": "uint256"
        }
      ],
      "name": "totalRewards",
      "outputs": [
        {
          "internalType": "uint256",
          "name": "",
          "type": "uint256"
        }
      ],
      "stateMutability": "view",
      "type": "function"
    },
    {
      "inputs": [
        {
          "internalType": "address",
          "name": "newOwner",
          "type": "address"
        }
      ],
      "name": "transferOwnership",
      "outputs": [],
      "stateMutability": "nonpayable",
      "type": "function"
    }
  ],
  "bytecode": "0x608060405234801561001057600080fd5b50604051610db9380380610db983398101604081905261002f91610146565b826001600160a01b03811661005e57604051631e4fbdf760e01b81526000600482015260240160405180910390fd5b610067816100da565b506001808055600380546001600160a01b039485166001600160a01b031991821617909155600280549390941692169190911790915566038d7ea4c680006004556706f05b59d3b200006005556101f4600a55336000908152600b60205260409020805460ff1916909117905550610189565b600080546001600160a01b038381166001600160a01b0319831681178455604051919092169283917f8be0079c531659141344cd1fd0a4f28419497f9722a3daafe3b4186f6b6457e09190a35050565b80516001600160a01b038116811461014157600080fd5b919050565b60008060006060848603121561015b57600080fd5b6101648461012a565b92506101726020850161012a565b91506101806040850161012a565b90509250925092565b610c21806101986000396000f3fe608060405234801561001057600080fd5b506004361061010b5760003560e01c80637c3a00fd116100a2578063ad6d7b7e11610071578063ad6d7b7e1461023d578063ba64983914610250578063f2fde38b14610270578063fa43aac914610283578063fefa9291146102b157600080fd5b80637c3a00fd146101dd5780637e7fa322146101e65780638da5cb5b146101f9578063a9c6b3fa1461020a57600080fd5b806352049ace116100de57806352049ace146101a3578063715018a6146101c357806376ad03bc146101cb5780637b0a47ee146101d457600080fd5b8063014dfaf9146101105780631f429f501461014057806332f266941461016e5780633b76594d1461018e575b600080fd5b600254610123906001600160a01b031681565b6040516001600160a01b0390911681526020015b60405180910390f35b61016061014e366004610a8d565b60086020526000908152604090205481565b604051908152602001610137565b61016061017c366004610ab1565b60076020526000908152604090205481565b6101a161019c366004610ab1565b6102c4565b005b6101606101b1366004610ab1565b60066020526000908152604090205481565b6101a16102e7565b61016060055481565b61016060045481565b610160600a5481565b600354610123906001600160a01b031681565b6000546001600160a01b0316610123565b61022d610218366004610a8d565b600b6020526000908152604090205460ff1681565b6040519015158152602001610137565b6101a161024b366004610a8d565b6102fb565b61016061025e366004610a8d565b60096020526000908152604090205481565b6101a161027e366004610a8d565b610327565b610296610291366004610a8d565b610367565b60408051938452602084019290925290820152606001610137565b6101a16102bf366004610ab1565b6103ad565b6102cc6107e2565b6003546102e4906001600160a01b031633308461080f565b50565b6102ef6107e2565b6102f9600061087c565b565b6103036107e2565b6001600160a01b03166000908152600b60205260409020805460ff19166001179055565b61032f6107e2565b6001600160a01b03811661035e57604051631e4fbdf760e01b8152600060048201526024015b60405180910390fd5b6102e48161087c565b6001600160a01b0381166000908152600860209081526040808320546009909252822054909181831161039b5760006103a5565b6103a58284610ae0565b929491935050565b6103b56108cc565b336000908152600b602052604090205460ff166104055760405162461bcd60e51b815260206004820152600e60248201526d139bdd08185d5d1a1bdc9a5e995960921b6044820152606401610355565b6002546001600160a01b031661045d5760405162461bcd60e51b815260206004820152601a60248201527f4372656469744e465420636f6e7472616374206e6f74207365740000000000006044820152606401610355565b6002546040516331a9108f60e11b8152600481018390526001600160a01b03909116906000908290636352211e90602401602060405180830381865afa1580156104ab573d6000803e3d6000fd5b505050506040513d601f19601f820116820180604052508101906104cf9190610af9565b90506001600160a01b0381166105175760405162461bcd60e51b815260206004820152600d60248201526c24b73b30b634b2103a37b5b2b760991b6044820152606401610355565b6000806000846001600160a01b0316632d1c55de876040518263ffffffff1660e01b815260040161054a91815260200190565b60e060405180830381865afa158015610567573d6000803e3d6000fd5b505050506040513d601f19601f8201168201806040525081019061058b9190610b16565b505050509250925092506000806001600160a01b0316826001600160a01b0316036105b657846105b8565b815b6040516389370d8b60e01b8152600481018990529091506000906001600160a01b038816906389370d8b90602401602060405180830381865afa158015610603573d6000803e3d6000fd5b505050506040513d601f19601f820116820180604052508101906106279190610b86565b905060006106368287876108f6565b6003546040516370a0823160e01b815230600482015291925082916001600160a01b03909116906370a0823190602401602060405180830381865afa158015610683573d6000803e3d6000fd5b505050506040513d601f19601f820116820180604052508101906106a79190610b86565b10156106f55760405162461bcd60e51b815260206004820152601d60248201527f496e73756666696369656e7420636f6e74726163742062616c616e63650000006044820152606401610355565b60035461070c906001600160a01b03168483610960565b6000898152600660209081526040808320429055600790915281208054839290610737908490610b9f565b9091555061074790508383610996565b826001600160a01b0316897f7de07bd2aa628dfa876fae9f600dec58e071fc4769629168d212d884c7f169078360405161078391815260200190565b60405180910390a360408051828152602081018490526001600160a01b038516918b917ffc6ecd966b430510beae9124efe7dd517ed5286d7ed0ae258f8556c7a9765a44910160405180910390a350505050505050506102e460018055565b6000546001600160a01b031633146102f95760405163118cdaa760e01b8152336004820152602401610355565b6040516001600160a01b0384811660248301528381166044830152606482018390526108769186918216906323b872dd906084015b604051602081830303815290604052915060e01b6020820180516001600160e01b038381831617835250505050610a07565b50505050565b600080546001600160a01b038381166001600160a01b0319831681178455604051919092169283917f8be0079c531659141344cd1fd0a4f28419497f9722a3daafe3b4186f6b6457e09190a35050565b6002600154036108ef57604051633ee5aeb560e01b815260040160405180910390fd5b6002600155565b600554600090841561091c5760045461090f9086610bb2565b6109199082610b9f565b90505b600683106109405760026005546109339190610bc9565b61093d9082610b9f565b90505b600c8310610958576005546109559082610b9f565b90505b949350505050565b6040516001600160a01b0383811660248301526044820183905261099191859182169063a9059cbb90606401610844565b505050565b60006109a3606483610bc9565b6109b590678ac7230489e80000610bb2565b6109c89068056bc75e2d63100000610b9f565b9050683635c9adc5dea000008111156109e75750683635c9adc5dea000005b6001600160a01b0390921660009081526008602052604090209190915550565b600080602060008451602086016000885af180610a2a576040513d6000823e3d81fd5b50506000513d91508115610a42578060011415610a4f565b6001600160a01b0384163b155b1561087657604051635274afe760e01b81526001600160a01b0385166004820152602401610355565b6001600160a01b03811681146102e457600080fd5b600060208284031215610a9f57600080fd5b8135610aaa81610a78565b9392505050565b600060208284031215610ac357600080fd5b5035919050565b634e487b7160e01b600052601160045260246000fd5b81810381811115610af357610af3610aca565b92915050565b600060208284031215610b0b57600080fd5b8151610aaa81610a78565b600080600080600080600060e0888a031215610b3157600080fd5b87519650602088015195506040880151610b4a81610a78565b80955050606088015193506080880151925060a0880151915060c08801518015158114610b7657600080fd5b8091505092959891949750929550565b600060208284031215610b9857600080fd5b5051919050565b80820180821115610af357610af3610aca565b8082028115828204841417610af357610af3610aca565b600082610be657634e487b7160e01b600052601260045260246000fd5b50049056fea26469706673582212200afc15a76e0918e9d2ebfcdf9ce748b8baded03041ac551ddf602dc110d73c8764736f6c63430008140033",
  "linkReferences": {},
  "deployedLinkReferences": {}
}